{
  "_format": "hh-sol-artifact-1",
  "contractName": "CryptoCocoA",
  "sourceName": "contracts/CryptoCocoA.sol",
  "abi": [
    {
      "inputs": [],
      "stateMutability": "nonpayable",
      "type": "constructor"
    },
    {
      "anonymous": false,
      "inputs": [
        {
          "indexed": true,
          "internalType": "address",
          "name": "owner",
          "type": "address"
        },
        {
          "indexed": true,
          "internalType": "address",
          "name": "approved",
          "type": "address"
        },
        {
          "indexed": true,
          "internalType": "uint256",
          "name": "tokenId",
          "type": "uint256"
        }
      ],
      "name": "Approval",
      "type": "event"
    },
    {
      "anonymous": false,
      "inputs": [
        {
          "indexed": true,
          "internalType": "address",
          "name": "owner",
          "type": "address"
        },
        {
          "indexed": true,
          "internalType": "address",
          "name": "operator",
          "type": "address"
        },
        {
          "indexed": false,
          "internalType": "bool",
          "name": "approved",
          "type": "bool"
        }
      ],
      "name": "ApprovalForAll",
      "type": "event"
    },
    {
      "anonymous": false,
      "inputs": [
        {
          "indexed": true,
          "internalType": "address",
          "name": "previousOwner",
          "type": "address"
        },
        {
          "indexed": true,
          "internalType": "address",
          "name": "newOwner",
          "type": "address"
        }
      ],
      "name": "OwnershipTransferred",
      "type": "event"
    },
    {
      "anonymous": false,
      "inputs": [
        {
          "indexed": true,
          "internalType": "address",
          "name": "from",
          "type": "address"
        },
        {
          "indexed": true,
          "internalType": "address",
          "name": "to",
          "type": "address"
        },
        {
          "indexed": true,
          "internalType": "uint256",
          "name": "tokenId",
          "type": "uint256"
        }
      ],
      "name": "Transfer",
      "type": "event"
    },
    {
      "inputs": [
        {
          "internalType": "address",
          "name": "to",
          "type": "address"
        },
        {
          "internalType": "uint256",
          "name": "tokenId",
          "type": "uint256"
        }
      ],
      "name": "approve",
      "outputs": [],
      "stateMutability": "nonpayable",
      "type": "function"
    },
    {
      "inputs": [
        {
          "internalType": "address",
          "name": "owner",
          "type": "address"
        }
      ],
      "name": "balanceOf",
      "outputs": [
        {
          "internalType": "uint256",
          "name": "",
          "type": "uint256"
        }
      ],
      "stateMutability": "view",
      "type": "function"
    },
    {
      "inputs": [
        {
          "internalType": "uint256",
          "name": "tokenId",
          "type": "uint256"
        }
      ],
      "name": "getApproved",
      "outputs": [
        {
          "internalType": "address",
          "name": "",
          "type": "address"
        }
      ],
      "stateMutability": "view",
      "type": "function"
    },
    {
      "inputs": [
        {
          "internalType": "address",
          "name": "owner",
          "type": "address"
        },
        {
          "internalType": "address",
          "name": "operator",
          "type": "address"
        }
      ],
      "name": "isApprovedForAll",
      "outputs": [
        {
          "internalType": "bool",
          "name": "",
          "type": "bool"
        }
      ],
      "stateMutability": "view",
      "type": "function"
    },
    {
      "inputs": [
        {
          "internalType": "string",
          "name": "cid",
          "type": "string"
        }
      ],
      "name": "mint",
      "outputs": [],
      "stateMutability": "nonpayable",
      "type": "function"
    },
    {
      "inputs": [],
      "name": "name",
      "outputs": [
        {
          "internalType": "string",
          "name": "",
          "type": "string"
        }
      ],
      "stateMutability": "view",
      "type": "function"
    },
    {
      "inputs": [],
      "name": "owner",
      "outputs": [
        {
          "internalType": "address",
          "name": "",
          "type": "address"
        }
      ],
      "stateMutability": "view",
      "type": "function"
    },
    {
      "inputs": [
        {
          "internalType": "uint256",
          "name": "tokenId",
          "type": "uint256"
        }
      ],
      "name": "ownerOf",
      "outputs": [
        {
          "internalType": "address",
          "name": "",
          "type": "address"
        }
      ],
      "stateMutability": "view",
      "type": "function"
    },
    {
      "inputs": [],
      "name": "renounceOwnership",
      "outputs": [],
      "stateMutability": "nonpayable",
      "type": "function"
    },
    {
      "inputs": [
        {
          "internalType": "address",
          "name": "from",
          "type": "address"
        },
        {
          "internalType": "address",
          "name": "to",
          "type": "address"
        },
        {
          "internalType": "uint256",
          "name": "tokenId",
          "type": "uint256"
        }
      ],
      "name": "safeTransferFrom",
      "outputs": [],
      "stateMutability": "nonpayable",
      "type": "function"
    },
    {
      "inputs": [
        {
          "internalType": "address",
          "name": "from",
          "type": "address"
        },
        {
          "internalType": "address",
          "name": "to",
          "type": "address"
        },
        {
          "internalType": "uint256",
          "name": "tokenId",
          "type": "uint256"
        },
        {
          "internalType": "bytes",
          "name": "_data",
          "type": "bytes"
        }
      ],
      "name": "safeTransferFrom",
      "outputs": [],
      "stateMutability": "nonpayable",
      "type": "function"
    },
    {
      "inputs": [
        {
          "internalType": "address",
          "name": "operator",
          "type": "address"
        },
        {
          "internalType": "bool",
          "name": "approved",
          "type": "bool"
        }
      ],
      "name": "setApprovalForAll",
      "outputs": [],
      "stateMutability": "nonpayable",
      "type": "function"
    },
    {
      "inputs": [
        {
          "internalType": "bytes4",
          "name": "interfaceId",
          "type": "bytes4"
        }
      ],
      "name": "supportsInterface",
      "outputs": [
        {
          "internalType": "bool",
          "name": "",
          "type": "bool"
        }
      ],
      "stateMutability": "view",
      "type": "function"
    },
    {
      "inputs": [],
      "name": "symbol",
      "outputs": [
        {
          "internalType": "string",
          "name": "",
          "type": "string"
        }
      ],
      "stateMutability": "view",
      "type": "function"
    },
    {
      "inputs": [
        {
          "internalType": "uint256",
          "name": "tokenId",
          "type": "uint256"
        }
      ],
      "name": "tokenURI",
      "outputs": [
        {
          "internalType": "string",
          "name": "",
          "type": "string"
        }
      ],
      "stateMutability": "view",
      "type": "function"
    },
    {
      "inputs": [
        {
          "internalType": "address",
          "name": "from",
          "type": "address"
        },
        {
          "internalType": "address",
          "name": "to",
          "type": "address"
        },
        {
          "internalType": "uint256",
          "name": "tokenId",
          "type": "uint256"
        }
      ],
      "name": "transferFrom",
      "outputs": [],
      "stateMutability": "nonpayable",
      "type": "function"
    },
    {
      "inputs": [
        {
          "internalType": "address",
          "name": "newOwner",
          "type": "address"
        }
      ],
      "name": "transferOwnership",
      "outputs": [],
      "stateMutability": "nonpayable",
      "type": "function"
    }
  ],
  "bytecode": "0x60806040523480156200001157600080fd5b50604080518082018252600b81526a43727970746f436f636f4160a81b602080830191825283518085019094526005845264434f434f4160d81b908401528151919291620000629160009162000122565b5080516200007890600190602084019062000122565b505050620000956200008f620000cc60201b60201c565b620000d0565b60408051808201909152600780825266697066733a2f2f60c81b6020909201918252620000c59160099162000122565b5062000205565b3390565b600780546001600160a01b038381166001600160a01b0319831681179093556040519116919082907f8be0079c531659141344cd1fd0a4f28419497f9722a3daafe3b4186f6b6457e090600090a35050565b8280546200013090620001c8565b90600052602060002090601f0160209004810192826200015457600085556200019f565b82601f106200016f57805160ff19168380011785556200019f565b828001600101855582156200019f579182015b828111156200019f57825182559160200191906001019062000182565b50620001ad929150620001b1565b5090565b5b80821115620001ad5760008155600101620001b2565b600181811c90821680620001dd57607f821691505b60208210811415620001ff57634e487b7160e01b600052602260045260246000fd5b50919050565b6119d480620002156000396000f3fe608060405234801561001057600080fd5b506004361061010b5760003560e01c8063715018a6116100a2578063b88d4fde11610071578063b88d4fde1461021b578063c87b56dd1461022e578063d85d3d2714610241578063e985e9c514610254578063f2fde38b1461029057600080fd5b8063715018a6146101e75780638da5cb5b146101ef57806395d89b4114610200578063a22cb4651461020857600080fd5b806323b872dd116100de57806323b872dd1461018d57806342842e0e146101a05780636352211e146101b357806370a08231146101c657600080fd5b806301ffc9a71461011057806306fdde0314610138578063081812fc1461014d578063095ea7b314610178575b600080fd5b61012361011e366004611592565b6102a3565b60405190151581526020015b60405180910390f35b6101406102f5565b60405161012f9190611782565b61016061015b366004611610565b610387565b6040516001600160a01b03909116815260200161012f565b61018b610186366004611569565b610414565b005b61018b61019b36600461147b565b61052a565b61018b6101ae36600461147b565b61055b565b6101606101c1366004611610565b610576565b6101d96101d436600461142f565b6105ed565b60405190815260200161012f565b61018b610674565b6007546001600160a01b0316610160565b6101406106aa565b61018b61021636600461152f565b6106b9565b61018b6102293660046114b6565b6106c8565b61014061023c366004611610565b610700565b61018b61024f3660046115ca565b610877565b610123610262366004611449565b6001600160a01b03918216600090815260056020908152604080832093909416825291909152205460ff1690565b61018b61029e36600461142f565b6108fa565b60006001600160e01b031982166380ac58cd60e01b14806102d457506001600160e01b03198216635b5e139f60e01b145b806102ef57506301ffc9a760e01b6001600160e01b03198316145b92915050565b606060008054610304906118dc565b80601f0160208091040260200160405190810160405280929190818152602001828054610330906118dc565b801561037d5780601f106103525761010080835404028352916020019161037d565b820191906000526020600020905b81548152906001019060200180831161036057829003601f168201915b5050505050905090565b600061039282610995565b6103f85760405162461bcd60e51b815260206004820152602c60248201527f4552433732313a20617070726f76656420717565727920666f72206e6f6e657860448201526b34b9ba32b73a103a37b5b2b760a11b60648201526084015b60405180910390fd5b506000908152600460205260409020546001600160a01b031690565b600061041f82610576565b9050806001600160a01b0316836001600160a01b0316141561048d5760405162461bcd60e51b815260206004820152602160248201527f4552433732313a20617070726f76616c20746f2063757272656e74206f776e656044820152603960f91b60648201526084016103ef565b336001600160a01b03821614806104a957506104a98133610262565b61051b5760405162461bcd60e51b815260206004820152603860248201527f4552433732313a20617070726f76652063616c6c6572206973206e6f74206f7760448201527f6e6572206e6f7220617070726f76656420666f7220616c6c000000000000000060648201526084016103ef565b61052583836109b2565b505050565b6105343382610a20565b6105505760405162461bcd60e51b81526004016103ef9061181c565b610525838383610b06565b610525838383604051806020016040528060008152506106c8565b6000818152600260205260408120546001600160a01b0316806102ef5760405162461bcd60e51b815260206004820152602960248201527f4552433732313a206f776e657220717565727920666f72206e6f6e657869737460448201526832b73a103a37b5b2b760b91b60648201526084016103ef565b60006001600160a01b0382166106585760405162461bcd60e51b815260206004820152602a60248201527f4552433732313a2062616c616e636520717565727920666f7220746865207a65604482015269726f206164647265737360b01b60648201526084016103ef565b506001600160a01b031660009081526003602052604090205490565b6007546001600160a01b0316331461069e5760405162461bcd60e51b81526004016103ef906117e7565b6106a86000610ca6565b565b606060018054610304906118dc565b6106c4338383610cf8565b5050565b6106d23383610a20565b6106ee5760405162461bcd60e51b81526004016103ef9061181c565b6106fa84848484610dc7565b50505050565b606061070b82610995565b6107715760405162461bcd60e51b815260206004820152603160248201527f45524337323155524953746f726167653a2055524920717565727920666f72206044820152703737b732bc34b9ba32b73a103a37b5b2b760791b60648201526084016103ef565b6000828152600660205260408120805461078a906118dc565b80601f01602080910402602001604051908101604052809291908181526020018280546107b6906118dc565b80156108035780601f106107d857610100808354040283529160200191610803565b820191906000526020600020905b8154815290600101906020018083116107e657829003601f168201915b50505050509050600061082160408051602081019091526000815290565b9050805160001415610834575092915050565b81511561086657808260405160200161084e929190611670565b60405160208183030381529060405292505050919050565b61086f84610dfa565b949350505050565b6007546001600160a01b031633146108a15760405162461bcd60e51b81526004016103ef906117e7565b60006009826040516020016108b792919061169f565b60405160208183030381529060405290506108da336108d560085490565b610ed2565b6108ec6108e660085490565b82610eec565b6106c4600880546001019055565b6007546001600160a01b031633146109245760405162461bcd60e51b81526004016103ef906117e7565b6001600160a01b0381166109895760405162461bcd60e51b815260206004820152602660248201527f4f776e61626c653a206e6577206f776e657220697320746865207a65726f206160448201526564647265737360d01b60648201526084016103ef565b61099281610ca6565b50565b6000908152600260205260409020546001600160a01b0316151590565b600081815260046020526040902080546001600160a01b0319166001600160a01b03841690811790915581906109e782610576565b6001600160a01b03167f8c5be1e5ebec7d5bd14f71427d1e84f3dd0314c0f7b2291e5b200ac8c7c3b92560405160405180910390a45050565b6000610a2b82610995565b610a8c5760405162461bcd60e51b815260206004820152602c60248201527f4552433732313a206f70657261746f7220717565727920666f72206e6f6e657860448201526b34b9ba32b73a103a37b5b2b760a11b60648201526084016103ef565b6000610a9783610576565b9050806001600160a01b0316846001600160a01b03161480610ad25750836001600160a01b0316610ac784610387565b6001600160a01b0316145b8061086f57506001600160a01b0380821660009081526005602090815260408083209388168352929052205460ff1661086f565b826001600160a01b0316610b1982610576565b6001600160a01b031614610b815760405162461bcd60e51b815260206004820152602960248201527f4552433732313a207472616e73666572206f6620746f6b656e2074686174206960448201526839903737ba1037bbb760b91b60648201526084016103ef565b6001600160a01b038216610be35760405162461bcd60e51b8152602060048201526024808201527f4552433732313a207472616e7366657220746f20746865207a65726f206164646044820152637265737360e01b60648201526084016103ef565b610bee6000826109b2565b6001600160a01b0383166000908152600360205260408120805460019290610c17908490611899565b90915550506001600160a01b0382166000908152600360205260408120805460019290610c4590849061186d565b909155505060008181526002602052604080822080546001600160a01b0319166001600160a01b0386811691821790925591518493918716917fddf252ad1be2c89b69c2b068fc378daa952ba7f163c4a11628f55a4df523b3ef91a4505050565b600780546001600160a01b038381166001600160a01b0319831681179093556040519116919082907f8be0079c531659141344cd1fd0a4f28419497f9722a3daafe3b4186f6b6457e090600090a35050565b816001600160a01b0316836001600160a01b03161415610d5a5760405162461bcd60e51b815260206004820152601960248201527f4552433732313a20617070726f766520746f2063616c6c65720000000000000060448201526064016103ef565b6001600160a01b03838116600081815260056020908152604080832094871680845294825291829020805460ff191686151590811790915591519182527f17307eab39ab6107e8899845ad3d59bd9653f200f220920489ca2b5937696c31910160405180910390a3505050565b610dd2848484610b06565b610dde84848484610f77565b6106fa5760405162461bcd60e51b81526004016103ef90611795565b6060610e0582610995565b610e695760405162461bcd60e51b815260206004820152602f60248201527f4552433732314d657461646174613a2055524920717565727920666f72206e6f60448201526e3732bc34b9ba32b73a103a37b5b2b760891b60648201526084016103ef565b6000610e8060408051602081019091526000815290565b90506000815111610ea05760405180602001604052806000815250610ecb565b80610eaa84611084565b604051602001610ebb929190611670565b6040516020818303038152906040525b9392505050565b6106c482826040518060200160405280600081525061119e565b610ef582610995565b610f585760405162461bcd60e51b815260206004820152602e60248201527f45524337323155524953746f726167653a2055524920736574206f66206e6f6e60448201526d32bc34b9ba32b73a103a37b5b2b760911b60648201526084016103ef565b6000828152600660209081526040909120825161052592840190611304565b60006001600160a01b0384163b1561107957604051630a85bd0160e11b81526001600160a01b0385169063150b7a0290610fbb903390899088908890600401611745565b602060405180830381600087803b158015610fd557600080fd5b505af1925050508015611005575060408051601f3d908101601f19168201909252611002918101906115ae565b60015b61105f573d808015611033576040519150601f19603f3d011682016040523d82523d6000602084013e611038565b606091505b5080516110575760405162461bcd60e51b81526004016103ef90611795565b805181602001fd5b6001600160e01b031916630a85bd0160e11b14905061086f565b506001949350505050565b6060816110a85750506040805180820190915260018152600360fc1b602082015290565b8160005b81156110d257806110bc81611917565b91506110cb9050600a83611885565b91506110ac565b60008167ffffffffffffffff8111156110fb57634e487b7160e01b600052604160045260246000fd5b6040519080825280601f01601f191660200182016040528015611125576020820181803683370190505b5090505b841561086f5761113a600183611899565b9150611147600a86611932565b61115290603061186d565b60f81b81838151811061117557634e487b7160e01b600052603260045260246000fd5b60200101906001600160f81b031916908160001a905350611197600a86611885565b9450611129565b6111a883836111d1565b6111b56000848484610f77565b6105255760405162461bcd60e51b81526004016103ef90611795565b6001600160a01b0382166112275760405162461bcd60e51b815260206004820181905260248201527f4552433732313a206d696e7420746f20746865207a65726f206164647265737360448201526064016103ef565b61123081610995565b1561127d5760405162461bcd60e51b815260206004820152601c60248201527f4552433732313a20746f6b656e20616c7265616479206d696e7465640000000060448201526064016103ef565b6001600160a01b03821660009081526003602052604081208054600192906112a690849061186d565b909155505060008181526002602052604080822080546001600160a01b0319166001600160a01b03861690811790915590518392907fddf252ad1be2c89b69c2b068fc378daa952ba7f163c4a11628f55a4df523b3ef908290a45050565b828054611310906118dc565b90600052602060002090601f0160209004810192826113325760008555611378565b82601f1061134b57805160ff1916838001178555611378565b82800160010185558215611378579182015b8281111561137857825182559160200191906001019061135d565b50611384929150611388565b5090565b5b808211156113845760008155600101611389565b600067ffffffffffffffff808411156113b8576113b8611972565b604051601f8501601f19908116603f011681019082821181831017156113e0576113e0611972565b816040528093508581528686860111156113f957600080fd5b858560208301376000602087830101525050509392505050565b80356001600160a01b038116811461142a57600080fd5b919050565b600060208284031215611440578081fd5b610ecb82611413565b6000806040838503121561145b578081fd5b61146483611413565b915061147260208401611413565b90509250929050565b60008060006060848603121561148f578081fd5b61149884611413565b92506114a660208501611413565b9150604084013590509250925092565b600080600080608085870312156114cb578081fd5b6114d485611413565b93506114e260208601611413565b925060408501359150606085013567ffffffffffffffff811115611504578182fd5b8501601f81018713611514578182fd5b6115238782356020840161139d565b91505092959194509250565b60008060408385031215611541578182fd5b61154a83611413565b91506020830135801515811461155e578182fd5b809150509250929050565b6000806040838503121561157b578182fd5b61158483611413565b946020939093013593505050565b6000602082840312156115a3578081fd5b8135610ecb81611988565b6000602082840312156115bf578081fd5b8151610ecb81611988565b6000602082840312156115db578081fd5b813567ffffffffffffffff8111156115f1578182fd5b8201601f81018413611601578182fd5b61086f8482356020840161139d565b600060208284031215611621578081fd5b5035919050565b600081518084526116408160208601602086016118b0565b601f01601f19169290920160200192915050565b600081516116668185602086016118b0565b9290920192915050565b600083516116828184602088016118b0565b8351908301906116968183602088016118b0565b01949350505050565b600080845482600182811c9150808316806116bb57607f831692505b60208084108214156116db57634e487b7160e01b87526022600452602487fd5b8180156116ef57600181146117005761172c565b60ff1986168952848901965061172c565b60008b815260209020885b868110156117245781548b82015290850190830161170b565b505084890196505b50505050505061173c8185611654565b95945050505050565b6001600160a01b038581168252841660208201526040810183905260806060820181905260009061177890830184611628565b9695505050505050565b602081526000610ecb6020830184611628565b60208082526032908201527f4552433732313a207472616e7366657220746f206e6f6e20455243373231526560408201527131b2b4bb32b91034b6b83632b6b2b73a32b960711b606082015260800190565b6020808252818101527f4f776e61626c653a2063616c6c6572206973206e6f7420746865206f776e6572604082015260600190565b60208082526031908201527f4552433732313a207472616e736665722063616c6c6572206973206e6f74206f6040820152701ddb995c881b9bdc88185c1c1c9bdd9959607a1b606082015260800190565b6000821982111561188057611880611946565b500190565b6000826118945761189461195c565b500490565b6000828210156118ab576118ab611946565b500390565b60005b838110156118cb5781810151838201526020016118b3565b838111156106fa5750506000910152565b600181811c908216806118f057607f821691505b6020821081141561191157634e487b7160e01b600052602260045260246000fd5b50919050565b600060001982141561192b5761192b611946565b5060010190565b6000826119415761194161195c565b500690565b634e487b7160e01b600052601160045260246000fd5b634e487b7160e01b600052601260045260246000fd5b634e487b7160e01b600052604160045260246000fd5b6001600160e01b03198116811461099257600080fdfea26469706673582212203421d477a13341adaca5101d39cfd3df875bb96b4dbb06aedb8be15ce4f3423d64736f6c63430008040033",
  "linkReferences": {},
  "deployedLinkReferences": {}
}